{
    "result": {
        "hex": "010000000001010000000000000000000000000000000000000000000000000000000000000000ffffffff1c03f9e31900000000006266676d696e657220352e352e300002000000ffffffff02dceb2a01000000001976a914f3b40cad194d48398755b45036421b1a645bbdcc88ac0000000000000000266a24aa21a9eda7b385e1d5a75ae006afcf8879edc04e47bc99d012f4c199e4e8517492e1b7220120000000000000000000000000000000000000000000000000000000000000000000000000",
        "txid": "5b0876dcc027d2f0c671fc250460ee388df39697c3ff082007b6ddd9cb9a7513",
        "hash": "c76866806bbb36bc0132ac7f59a4424a40772126fdd45ee4e1e11b3fd337525d",
        "size": 196,
        "vsize": 169,
        "weight": 676,
        "version": 1,
        "locktime": 0,
        "vin": [
            {
                "coinbase": "03f9e31900000000006266676d696e657220352e352e300002000000",
                "sequence": 4294967295,
                "witness": [
                    "0000000000000000000000000000000000000000000000000000000000000000"
                ]
            }
        ],
        "vout": [
            {
                "value": 0.19590108,
                "n": 0,
                "scriptPubKey": {
                    "asm": "OP_DUP OP_HASH160 f3b40cad194d48398755b45036421b1a645bbdcc OP_EQUALVERIFY OP_CHECKSIG",
                    "hex": "76a914f3b40cad194d48398755b45036421b1a645bbdcc88ac",
                    "reqSigs": 1,
                    "type": "pubkeyhash",
                    "addresses": [
                        "n3jYBjCzgGNydQwf83Hz6GBzGBhMkKfgL1"
                    ]
                }
            },
            {
                "value": 1.5,
                "n": 1,
                "scriptPubKey": {
                    "asm": "OP_DUP OP_HASH160 f3b40cad194d48398755b45036421b1a645bbdcc OP_EQUALVERIFY OP_CHECKSIG",
                    "hex": "76a914f3b40cad194d48398755b45036421b1a645bbdcc88ac",
                    "reqSigs": 1,
                    "type": "pubkeyhash",
                    "addresses": [
                        "n3jYBjCzgGNydQwf83Hz6GBzGBhMkKfgL1"
                    ]
                }
            }
        ],
        "blockhash": "000000008de7a25f64f9780b6c894016d2c63716a89f7c9e704ebb7e8377a0c8",
        "confirmations": 211,
        "time": 1586387793,
        "blocktime": 1586387793
    },
    "error": null,
    "id": 3
}
